{
  "address": "0x7c68902671ea686cf5D9D8Bc9C2432B6bBAD7440",
  "abi": [
    {
      "inputs": [
        {
          "internalType": "address",
          "name": "vrfCoordinatorV2",
          "type": "address"
        },
        {
          "internalType": "uint256",
          "name": "entranceFee",
          "type": "uint256"
        },
        {
          "internalType": "bytes32",
          "name": "gasLane",
          "type": "bytes32"
        },
        {
          "internalType": "uint64",
          "name": "subscriptionId",
          "type": "uint64"
        },
        {
          "internalType": "uint32",
          "name": "callbackGasLimit",
          "type": "uint32"
        },
        {
          "internalType": "uint256",
          "name": "interval",
          "type": "uint256"
        },
        {
          "internalType": "uint256",
          "name": "fakePayment",
          "type": "uint256"
        }
      ],
      "stateMutability": "nonpayable",
      "type": "constructor"
    },
    {
      "inputs": [
        {
          "internalType": "address",
          "name": "have",
          "type": "address"
        },
        {
          "internalType": "address",
          "name": "want",
          "type": "address"
        }
      ],
      "name": "OnlyCoordinatorCanFulfill",
      "type": "error"
    },
    {
      "inputs": [],
      "name": "Raffle__NotOpen",
      "type": "error"
    },
    {
      "inputs": [],
      "name": "Raffle__SendMoreToEnterRaffle",
      "type": "error"
    },
    {
      "inputs": [],
      "name": "Raffle__TransferFailed",
      "type": "error"
    },
    {
      "inputs": [
        {
          "internalType": "uint256",
          "name": "currentBalance",
          "type": "uint256"
        },
        {
          "internalType": "uint256",
          "name": "numPlayers",
          "type": "uint256"
        },
        {
          "internalType": "uint256",
          "name": "raffleState",
          "type": "uint256"
        }
      ],
      "name": "Raffle__UpkeepNotNeeded",
      "type": "error"
    },
    {
      "anonymous": false,
      "inputs": [
        {
          "indexed": true,
          "internalType": "address",
          "name": "player",
          "type": "address"
        }
      ],
      "name": "RaffleEnter",
      "type": "event"
    },
    {
      "anonymous": false,
      "inputs": [
        {
          "indexed": true,
          "internalType": "uint256",
          "name": "requestId",
          "type": "uint256"
        }
      ],
      "name": "ReqestedRaffleWinner",
      "type": "event"
    },
    {
      "anonymous": false,
      "inputs": [
        {
          "indexed": true,
          "internalType": "address",
          "name": "winner",
          "type": "address"
        }
      ],
      "name": "WinnerPicked",
      "type": "event"
    },
    {
      "inputs": [
        {
          "internalType": "bytes",
          "name": "",
          "type": "bytes"
        }
      ],
      "name": "checkUpkeep",
      "outputs": [
        {
          "internalType": "bool",
          "name": "upkeepNeeded",
          "type": "bool"
        },
        {
          "internalType": "bytes",
          "name": "",
          "type": "bytes"
        }
      ],
      "stateMutability": "nonpayable",
      "type": "function"
    },
    {
      "inputs": [],
      "name": "enterRaffle",
      "outputs": [],
      "stateMutability": "payable",
      "type": "function"
    },
    {
      "inputs": [],
      "name": "getEntranceFee",
      "outputs": [
        {
          "internalType": "uint256",
          "name": "",
          "type": "uint256"
        }
      ],
      "stateMutability": "view",
      "type": "function"
    },
    {
      "inputs": [],
      "name": "getFakePayment",
      "outputs": [
        {
          "internalType": "uint256",
          "name": "",
          "type": "uint256"
        }
      ],
      "stateMutability": "view",
      "type": "function"
    },
    {
      "inputs": [],
      "name": "getInterval",
      "outputs": [
        {
          "internalType": "uint256",
          "name": "",
          "type": "uint256"
        }
      ],
      "stateMutability": "view",
      "type": "function"
    },
    {
      "inputs": [],
      "name": "getNumWords",
      "outputs": [
        {
          "internalType": "uint32",
          "name": "",
          "type": "uint32"
        }
      ],
      "stateMutability": "pure",
      "type": "function"
    },
    {
      "inputs": [],
      "name": "getNumberOfPlayers",
      "outputs": [
        {
          "internalType": "uint256",
          "name": "",
          "type": "uint256"
        }
      ],
      "stateMutability": "view",
      "type": "function"
    },
    {
      "inputs": [
        {
          "internalType": "uint256",
          "name": "index",
          "type": "uint256"
        }
      ],
      "name": "getPlayer",
      "outputs": [
        {
          "internalType": "address",
          "name": "",
          "type": "address"
        }
      ],
      "stateMutability": "view",
      "type": "function"
    },
    {
      "inputs": [],
      "name": "getRaffleState",
      "outputs": [
        {
          "internalType": "enum Raffle.RaffleState",
          "name": "",
          "type": "uint8"
        }
      ],
      "stateMutability": "view",
      "type": "function"
    },
    {
      "inputs": [],
      "name": "getRecentWinner",
      "outputs": [
        {
          "internalType": "address",
          "name": "",
          "type": "address"
        }
      ],
      "stateMutability": "view",
      "type": "function"
    },
    {
      "inputs": [],
      "name": "getRequestConfirmations",
      "outputs": [
        {
          "internalType": "uint16",
          "name": "",
          "type": "uint16"
        }
      ],
      "stateMutability": "pure",
      "type": "function"
    },
    {
      "inputs": [],
      "name": "getlatestTimeStamp",
      "outputs": [
        {
          "internalType": "uint256",
          "name": "",
          "type": "uint256"
        }
      ],
      "stateMutability": "view",
      "type": "function"
    },
    {
      "inputs": [
        {
          "internalType": "bytes",
          "name": "",
          "type": "bytes"
        }
      ],
      "name": "performUpkeep",
      "outputs": [],
      "stateMutability": "nonpayable",
      "type": "function"
    },
    {
      "inputs": [
        {
          "internalType": "uint256",
          "name": "requestId",
          "type": "uint256"
        },
        {
          "internalType": "uint256[]",
          "name": "randomWords",
          "type": "uint256[]"
        }
      ],
      "name": "rawFulfillRandomWords",
      "outputs": [],
      "stateMutability": "nonpayable",
      "type": "function"
    }
  ],
  "transactionHash": "0xcaf72ad1188ed1f845979df036995131a3257e84cf49b62863c7102c8c69b141",
  "args": [
    "0x2Ca8E0C643bDe4C2E08ab1fA0da3401AdAD7734D",
    "10000000000000000",
    "0x79d3d8832d904592c0bf9818b621522c988bb8b0c05cdc3b15aea1b6e8db0c15",
    "1384",
    "500000",
    "30",
    "100000000000000000"
  ],
  "numDeployments": 1,
  "solcInputHash": "a1809dd38575122f8d479331531f2e09",
  "bytecode": "0x6101806040523480156200001257600080fd5b50604051620018e0380380620018e083398181016040528101906200003891906200029e565b868073ffffffffffffffffffffffffffffffffffffffff1660808173ffffffffffffffffffffffffffffffffffffffff1681525050508560a081815250508673ffffffffffffffffffffffffffffffffffffffff1660e08173ffffffffffffffffffffffffffffffffffffffff16815250508461010081815250508367ffffffffffffffff166101208167ffffffffffffffff16815250508263ffffffff166101408163ffffffff16815250506000600160146101000a81548160ff021916908360018111156200010e576200010d62000351565b5b0217905550426002819055508161016081815250508060c081815250505050505050505062000380565b600080fd5b600073ffffffffffffffffffffffffffffffffffffffff82169050919050565b60006200016a826200013d565b9050919050565b6200017c816200015d565b81146200018857600080fd5b50565b6000815190506200019c8162000171565b92915050565b6000819050919050565b620001b781620001a2565b8114620001c357600080fd5b50565b600081519050620001d781620001ac565b92915050565b6000819050919050565b620001f281620001dd565b8114620001fe57600080fd5b50565b6000815190506200021281620001e7565b92915050565b600067ffffffffffffffff82169050919050565b620002378162000218565b81146200024357600080fd5b50565b60008151905062000257816200022c565b92915050565b600063ffffffff82169050919050565b62000278816200025d565b81146200028457600080fd5b50565b60008151905062000298816200026d565b92915050565b600080600080600080600060e0888a031215620002c057620002bf62000138565b5b6000620002d08a828b016200018b565b9750506020620002e38a828b01620001c6565b9650506040620002f68a828b0162000201565b9550506060620003098a828b0162000246565b94505060806200031c8a828b0162000287565b93505060a06200032f8a828b01620001c6565b92505060c0620003428a828b01620001c6565b91505092959891949750929550565b7f4e487b7100000000000000000000000000000000000000000000000000000000600052602160045260246000fd5b60805160a05160c05160e051610100516101205161014051610160516114e5620003fb600039600081816107ed0152610896015260006106e1015260006106be0152600061069d01526000610661015260006108c8015260008181610340015261043d01526000818161037d01526103d101526114e56000f3fe6080604052600436106100dd5760003560e01c80635f1b0fd81161007f578063a357b14611610059578063a357b1461461027e578063cd4af718146102a9578063e55ae4e8146102d4578063fd6673f514610311576100dd565b80635f1b0fd8146101ea5780636e04ff0d1461021557806391ad27b414610253576100dd565b80632cfcc539116100bb5780632cfcc539146101615780634585e33b1461016b578063473f1ddc1461019457806353a2c19a146101bf576100dd565b806309bc33a7146100e2578063115cbaf51461010d5780631fe543e314610138575b600080fd5b3480156100ee57600080fd5b506100f761033c565b6040516101049190610c30565b60405180910390f35b34801561011957600080fd5b50610122610364565b60405161012f9190610cc2565b60405180910390f35b34801561014457600080fd5b5061015f600480360381019061015a9190610e76565b61037b565b005b61016961043b565b005b34801561017757600080fd5b50610192600480360381019061018d9190610f2d565b6105aa565b005b3480156101a057600080fd5b506101a96107a9565b6040516101b69190610fbb565b60405180910390f35b3480156101cb57600080fd5b506101d46107d3565b6040516101e19190610ff5565b60405180910390f35b3480156101f657600080fd5b506101ff6107dc565b60405161020c919061102d565b60405180910390f35b34801561022157600080fd5b5061023c600480360381019061023791906110fd565b6107e5565b60405161024a9291906111e9565b60405180910390f35b34801561025f57600080fd5b50610268610892565b6040516102759190610c30565b60405180910390f35b34801561028a57600080fd5b506102936108ba565b6040516102a09190610c30565b60405180910390f35b3480156102b557600080fd5b506102be6108c4565b6040516102cb9190610c30565b60405180910390f35b3480156102e057600080fd5b506102fb60048036038101906102f69190611219565b6108ec565b6040516103089190610fbb565b60405180910390f35b34801561031d57600080fd5b50610326610933565b6040516103339190610c30565b60405180910390f35b60007f0000000000000000000000000000000000000000000000000000000000000000905090565b6000600160149054906101000a900460ff16905090565b7f000000000000000000000000000000000000000000000000000000000000000073ffffffffffffffffffffffffffffffffffffffff163373ffffffffffffffffffffffffffffffffffffffff161461042d57337f00000000000000000000000000000000000000000000000000000000000000006040517f1cf993f4000000000000000000000000000000000000000000000000000000008152600401610424929190611246565b60405180910390fd5b610437828261093f565b5050565b7f0000000000000000000000000000000000000000000000000000000000000000341015610495576040517f3038c00a00000000000000000000000000000000000000000000000000000000815260040160405180910390fd5b600060018111156104a9576104a8610c4b565b5b600160149054906101000a900460ff1660018111156104cb576104ca610c4b565b5b14610502576040517f1425571c00000000000000000000000000000000000000000000000000000000815260040160405180910390fd5b6000339080600181540180825580915050600190039060005260206000200160009091909190916101000a81548173ffffffffffffffffffffffffffffffffffffffff021916908373ffffffffffffffffffffffffffffffffffffffff1602179055503373ffffffffffffffffffffffffffffffffffffffff167f0805e1d667bddb8a95f0f09880cf94f403fb596ce79928d9f29b74203ba284d460405160405180910390a2565b60006105c4604051806020016040528060008152506107e5565b509050806106335747600080549050600160149054906101000a900460ff1660018111156105f5576105f4610c4b565b5b6040517f584327aa00000000000000000000000000000000000000000000000000000000815260040161062a9392919061126f565b60405180910390fd5b60018060146101000a81548160ff0219169083600181111561065857610657610c4b565b5b021790555060007f000000000000000000000000000000000000000000000000000000000000000073ffffffffffffffffffffffffffffffffffffffff16635d3b1d307f00000000000000000000000000000000000000000000000000000000000000007f000000000000000000000000000000000000000000000000000000000000000060037f000000000000000000000000000000000000000000000000000000000000000060016040518663ffffffff1660e01b81526004016107229594939291906112e2565b602060405180830381600087803b15801561073c57600080fd5b505af1158015610750573d6000803e3d6000fd5b505050506040513d601f19601f82011682018060405250810190610774919061134a565b9050807feaaef190cda19dcc6c54a8cf34b736dfa9a8b92e6e8a7c457bdc7e6870661e8960405160405180910390a250505050565b6000600160009054906101000a900473ffffffffffffffffffffffffffffffffffffffff16905090565b60006001905090565b60006003905090565b6000606060007f00000000000000000000000000000000000000000000000000000000000000006002544261081a91906113a6565b119050600080600080549050119050600080471190506000600160149054906101000a900460ff16600181111561085457610853610c4b565b5b6000600181111561086857610867610c4b565b5b1490508380156108755750825b801561087e5750815b80156108875750805b955050505050915091565b60007f0000000000000000000000000000000000000000000000000000000000000000905090565b6000600254905090565b60007f0000000000000000000000000000000000000000000000000000000000000000905090565b6000808281548110610901576109006113da565b5b9060005260206000200160009054906101000a900473ffffffffffffffffffffffffffffffffffffffff169050919050565b60008080549050905090565b600080805490508260008151811061095a576109596113da565b5b602002602001015161096c9190611438565b90506000808281548110610983576109826113da565b5b9060005260206000200160009054906101000a900473ffffffffffffffffffffffffffffffffffffffff16905080600160006101000a81548173ffffffffffffffffffffffffffffffffffffffff021916908373ffffffffffffffffffffffffffffffffffffffff1602179055506000600160146101000a81548160ff02191690836001811115610a1757610a16610c4b565b5b0217905550600067ffffffffffffffff811115610a3757610a36610d33565b5b604051908082528060200260200182016040528015610a655781602001602082028036833780820191505090505b5060009080519060200190610a7b929190610b70565b504260028190555060008173ffffffffffffffffffffffffffffffffffffffff1647604051610aa99061149a565b60006040518083038185875af1925050503d8060008114610ae6576040519150601f19603f3d011682016040523d82523d6000602084013e610aeb565b606091505b5050905080610b26576040517fa1d04b3900000000000000000000000000000000000000000000000000000000815260040160405180910390fd5b8173ffffffffffffffffffffffffffffffffffffffff167f5b690ec4a06fe979403046eaeea5b3ce38524683c3001f662c8b5a829632f7df60405160405180910390a25050505050565b828054828255906000526020600020908101928215610be9579160200282015b82811115610be85782518260006101000a81548173ffffffffffffffffffffffffffffffffffffffff021916908373ffffffffffffffffffffffffffffffffffffffff16021790555091602001919060010190610b90565b5b509050610bf69190610bfa565b5090565b5b80821115610c13576000816000905550600101610bfb565b5090565b6000819050919050565b610c2a81610c17565b82525050565b6000602082019050610c456000830184610c21565b92915050565b7f4e487b7100000000000000000000000000000000000000000000000000000000600052602160045260246000fd5b60028110610c8b57610c8a610c4b565b5b50565b6000819050610c9c82610c7a565b919050565b6000610cac82610c8e565b9050919050565b610cbc81610ca1565b82525050565b6000602082019050610cd76000830184610cb3565b92915050565b6000604051905090565b600080fd5b600080fd5b610cfa81610c17565b8114610d0557600080fd5b50565b600081359050610d1781610cf1565b92915050565b600080fd5b6000601f19601f8301169050919050565b7f4e487b7100000000000000000000000000000000000000000000000000000000600052604160045260246000fd5b610d6b82610d22565b810181811067ffffffffffffffff82111715610d8a57610d89610d33565b5b80604052505050565b6000610d9d610cdd565b9050610da98282610d62565b919050565b600067ffffffffffffffff821115610dc957610dc8610d33565b5b602082029050602081019050919050565b600080fd5b6000610df2610ded84610dae565b610d93565b90508083825260208201905060208402830185811115610e1557610e14610dda565b5b835b81811015610e3e5780610e2a8882610d08565b845260208401935050602081019050610e17565b5050509392505050565b600082601f830112610e5d57610e5c610d1d565b5b8135610e6d848260208601610ddf565b91505092915050565b60008060408385031215610e8d57610e8c610ce7565b5b6000610e9b85828601610d08565b925050602083013567ffffffffffffffff811115610ebc57610ebb610cec565b5b610ec885828601610e48565b9150509250929050565b600080fd5b60008083601f840112610eed57610eec610d1d565b5b8235905067ffffffffffffffff811115610f0a57610f09610ed2565b5b602083019150836001820283011115610f2657610f25610dda565b5b9250929050565b60008060208385031215610f4457610f43610ce7565b5b600083013567ffffffffffffffff811115610f6257610f61610cec565b5b610f6e85828601610ed7565b92509250509250929050565b600073ffffffffffffffffffffffffffffffffffffffff82169050919050565b6000610fa582610f7a565b9050919050565b610fb581610f9a565b82525050565b6000602082019050610fd06000830184610fac565b92915050565b600063ffffffff82169050919050565b610fef81610fd6565b82525050565b600060208201905061100a6000830184610fe6565b92915050565b600061ffff82169050919050565b61102781611010565b82525050565b6000602082019050611042600083018461101e565b92915050565b600080fd5b600067ffffffffffffffff82111561106857611067610d33565b5b61107182610d22565b9050602081019050919050565b82818337600083830152505050565b60006110a061109b8461104d565b610d93565b9050828152602081018484840111156110bc576110bb611048565b5b6110c784828561107e565b509392505050565b600082601f8301126110e4576110e3610d1d565b5b81356110f484826020860161108d565b91505092915050565b60006020828403121561111357611112610ce7565b5b600082013567ffffffffffffffff81111561113157611130610cec565b5b61113d848285016110cf565b91505092915050565b60008115159050919050565b61115b81611146565b82525050565b600081519050919050565b600082825260208201905092915050565b60005b8381101561119b578082015181840152602081019050611180565b838111156111aa576000848401525b50505050565b60006111bb82611161565b6111c5818561116c565b93506111d581856020860161117d565b6111de81610d22565b840191505092915050565b60006040820190506111fe6000830185611152565b818103602083015261121081846111b0565b90509392505050565b60006020828403121561122f5761122e610ce7565b5b600061123d84828501610d08565b91505092915050565b600060408201905061125b6000830185610fac565b6112686020830184610fac565b9392505050565b60006060820190506112846000830186610c21565b6112916020830185610c21565b61129e6040830184610c21565b949350505050565b6000819050919050565b6112b9816112a6565b82525050565b600067ffffffffffffffff82169050919050565b6112dc816112bf565b82525050565b600060a0820190506112f760008301886112b0565b61130460208301876112d3565b611311604083018661101e565b61131e6060830185610fe6565b61132b6080830184610fe6565b9695505050505050565b60008151905061134481610cf1565b92915050565b6000602082840312156113605761135f610ce7565b5b600061136e84828501611335565b91505092915050565b7f4e487b7100000000000000000000000000000000000000000000000000000000600052601160045260246000fd5b60006113b182610c17565b91506113bc83610c17565b9250828210156113cf576113ce611377565b5b828203905092915050565b7f4e487b7100000000000000000000000000000000000000000000000000000000600052603260045260246000fd5b7f4e487b7100000000000000000000000000000000000000000000000000000000600052601260045260246000fd5b600061144382610c17565b915061144e83610c17565b92508261145e5761145d611409565b5b828206905092915050565b600081905092915050565b50565b6000611484600083611469565b915061148f82611474565b600082019050919050565b60006114a582611477565b915081905091905056fea26469706673582212206ed2cfa52e3d7bdba73f406937fc0d7bf1d407504ee4a4e3fd613ddc3ae69e9264736f6c63430008090033",
  "devdoc": {
    "author": "Patrick Collins",
    "details": "This implements the Chainlink VRF Version 2 & Chainlink Keepers",
    "kind": "dev",
    "methods": {
      "checkUpkeep(bytes)": {
        "details": "This is the func that Chainlink Keeper nodes call to look for the \"upkeepNeeded\" to return \"true\". Once it's true, \"performUpkeep()\" func is triggered To be true, the following should be true: 1. Our specified time internal should have passed 2. The lottery should have at least 1 player + have some ETH 3. Our subscription is funded with LINK 4. The lottery should be in an \"open\" state"
      }
    },
    "title": "A sample Raffle Contract",
    "version": 1
  },
  "userdoc": {
    "kind": "user",
    "methods": {},
    "notice": "This contract is for creating a sample raffle contract",
    "version": 1
  },
  "storageLayout": {
    "storage": [
      {
        "astId": 874,
        "contract": "contracts/Raffle.sol:Raffle",
        "label": "s_players",
        "offset": 0,
        "slot": "0",
        "type": "t_array(t_address_payable)dyn_storage"
      },
      {
        "astId": 891,
        "contract": "contracts/Raffle.sol:Raffle",
        "label": "s_recentWinner",
        "offset": 0,
        "slot": "1",
        "type": "t_address"
      },
      {
        "astId": 894,
        "contract": "contracts/Raffle.sol:Raffle",
        "label": "s_raffleState",
        "offset": 20,
        "slot": "1",
        "type": "t_enum(RaffleState)867"
      },
      {
        "astId": 896,
        "contract": "contracts/Raffle.sol:Raffle",
        "label": "s_lastTimeStamp",
        "offset": 0,
        "slot": "2",
        "type": "t_uint256"
      }
    ],
    "types": {
      "t_address": {
        "encoding": "inplace",
        "label": "address",
        "numberOfBytes": "20"
      },
      "t_address_payable": {
        "encoding": "inplace",
        "label": "address payable",
        "numberOfBytes": "20"
      },
      "t_array(t_address_payable)dyn_storage": {
        "base": "t_address_payable",
        "encoding": "dynamic_array",
        "label": "address payable[]",
        "numberOfBytes": "32"
      },
      "t_enum(RaffleState)867": {
        "encoding": "inplace",
        "label": "enum Raffle.RaffleState",
        "numberOfBytes": "1"
      },
      "t_uint256": {
        "encoding": "inplace",
        "label": "uint256",
        "numberOfBytes": "32"
      }
    }
  }
}